{
  "_format": "hh-sol-artifact-1",
  "contractName": "SouthPredict",
  "sourceName": "contracts/SouthPredict.sol",
  "abi": [
    {
      "inputs": [
        {
          "internalType": "address",
          "name": "_usdt",
          "type": "address"
        }
      ],
      "stateMutability": "nonpayable",
      "type": "constructor"
    },
    {
      "anonymous": false,
      "inputs": [
        {
          "indexed": true,
          "internalType": "uint256",
          "name": "marketId",
          "type": "uint256"
        },
        {
          "indexed": true,
          "internalType": "address",
          "name": "bettor",
          "type": "address"
        },
        {
          "indexed": false,
          "internalType": "bool",
          "name": "isYes",
          "type": "bool"
        },
        {
          "indexed": false,
          "internalType": "uint256",
          "name": "amount",
          "type": "uint256"
        }
      ],
      "name": "BetPlaced",
      "type": "event"
    },
    {
      "anonymous": false,
      "inputs": [
        {
          "indexed": true,
          "internalType": "address",
          "name": "owner",
          "type": "address"
        },
        {
          "indexed": false,
          "internalType": "uint256",
          "name": "amount",
          "type": "uint256"
        }
      ],
      "name": "FeesWithdrawn",
      "type": "event"
    },
    {
      "anonymous": false,
      "inputs": [
        {
          "indexed": true,
          "internalType": "uint256",
          "name": "marketId",
          "type": "uint256"
        },
        {
          "indexed": false,
          "internalType": "string",
          "name": "question",
          "type": "string"
        }
      ],
      "name": "MarketCreated",
      "type": "event"
    },
    {
      "anonymous": false,
      "inputs": [
        {
          "indexed": true,
          "internalType": "uint256",
          "name": "marketId",
          "type": "uint256"
        },
        {
          "indexed": false,
          "internalType": "bool",
          "name": "yesWon",
          "type": "bool"
        }
      ],
      "name": "MarketResolved",
      "type": "event"
    },
    {
      "anonymous": false,
      "inputs": [
        {
          "indexed": true,
          "internalType": "uint256",
          "name": "marketId",
          "type": "uint256"
        },
        {
          "indexed": true,
          "internalType": "address",
          "name": "bettor",
          "type": "address"
        },
        {
          "indexed": false,
          "internalType": "uint256",
          "name": "amount",
          "type": "uint256"
        }
      ],
      "name": "WinningsClaimed",
      "type": "event"
    },
    {
      "inputs": [
        {
          "internalType": "uint256",
          "name": "",
          "type": "uint256"
        },
        {
          "internalType": "address",
          "name": "",
          "type": "address"
        }
      ],
      "name": "bets",
      "outputs": [
        {
          "internalType": "uint256",
          "name": "amount",
          "type": "uint256"
        },
        {
          "internalType": "bool",
          "name": "isYes",
          "type": "bool"
        },
        {
          "internalType": "bool",
          "name": "claimed",
          "type": "bool"
        }
      ],
      "stateMutability": "view",
      "type": "function"
    },
    {
      "inputs": [
        {
          "internalType": "uint256",
          "name": "_marketId",
          "type": "uint256"
        }
      ],
      "name": "claimWinnings",
      "outputs": [],
      "stateMutability": "nonpayable",
      "type": "function"
    },
    {
      "inputs": [],
      "name": "collectedFees",
      "outputs": [
        {
          "internalType": "uint256",
          "name": "",
          "type": "uint256"
        }
      ],
      "stateMutability": "view",
      "type": "function"
    },
    {
      "inputs": [
        {
          "internalType": "string",
          "name": "_question",
          "type": "string"
        }
      ],
      "name": "createMarket",
      "outputs": [],
      "stateMutability": "nonpayable",
      "type": "function"
    },
    {
      "inputs": [],
      "name": "feePercent",
      "outputs": [
        {
          "internalType": "uint256",
          "name": "",
          "type": "uint256"
        }
      ],
      "stateMutability": "view",
      "type": "function"
    },
    {
      "inputs": [
        {
          "internalType": "uint256",
          "name": "_marketId",
          "type": "uint256"
        },
        {
          "internalType": "address",
          "name": "_bettor",
          "type": "address"
        }
      ],
      "name": "getBet",
      "outputs": [
        {
          "components": [
            {
              "internalType": "uint256",
              "name": "amount",
              "type": "uint256"
            },
            {
              "internalType": "bool",
              "name": "isYes",
              "type": "bool"
            },
            {
              "internalType": "bool",
              "name": "claimed",
              "type": "bool"
            }
          ],
          "internalType": "struct SouthPredict.Bet",
          "name": "",
          "type": "tuple"
        }
      ],
      "stateMutability": "view",
      "type": "function"
    },
    {
      "inputs": [],
      "name": "getCollectedFees",
      "outputs": [
        {
          "internalType": "uint256",
          "name": "",
          "type": "uint256"
        }
      ],
      "stateMutability": "view",
      "type": "function"
    },
    {
      "inputs": [
        {
          "internalType": "uint256",
          "name": "_marketId",
          "type": "uint256"
        }
      ],
      "name": "getMarket",
      "outputs": [
        {
          "components": [
            {
              "internalType": "uint256",
              "name": "id",
              "type": "uint256"
            },
            {
              "internalType": "string",
              "name": "question",
              "type": "string"
            },
            {
              "internalType": "uint256",
              "name": "yesPool",
              "type": "uint256"
            },
            {
              "internalType": "uint256",
              "name": "noPool",
              "type": "uint256"
            },
            {
              "internalType": "bool",
              "name": "resolved",
              "type": "bool"
            },
            {
              "internalType": "bool",
              "name": "yesWon",
              "type": "bool"
            },
            {
              "internalType": "bool",
              "name": "exists",
              "type": "bool"
            }
          ],
          "internalType": "struct SouthPredict.Market",
          "name": "",
          "type": "tuple"
        }
      ],
      "stateMutability": "view",
      "type": "function"
    },
    {
      "inputs": [],
      "name": "marketCount",
      "outputs": [
        {
          "internalType": "uint256",
          "name": "",
          "type": "uint256"
        }
      ],
      "stateMutability": "view",
      "type": "function"
    },
    {
      "inputs": [
        {
          "internalType": "uint256",
          "name": "",
          "type": "uint256"
        }
      ],
      "name": "markets",
      "outputs": [
        {
          "internalType": "uint256",
          "name": "id",
          "type": "uint256"
        },
        {
          "internalType": "string",
          "name": "question",
          "type": "string"
        },
        {
          "internalType": "uint256",
          "name": "yesPool",
          "type": "uint256"
        },
        {
          "internalType": "uint256",
          "name": "noPool",
          "type": "uint256"
        },
        {
          "internalType": "bool",
          "name": "resolved",
          "type": "bool"
        },
        {
          "internalType": "bool",
          "name": "yesWon",
          "type": "bool"
        },
        {
          "internalType": "bool",
          "name": "exists",
          "type": "bool"
        }
      ],
      "stateMutability": "view",
      "type": "function"
    },
    {
      "inputs": [],
      "name": "owner",
      "outputs": [
        {
          "internalType": "address",
          "name": "",
          "type": "address"
        }
      ],
      "stateMutability": "view",
      "type": "function"
    },
    {
      "inputs": [
        {
          "internalType": "uint256",
          "name": "_marketId",
          "type": "uint256"
        },
        {
          "internalType": "bool",
          "name": "_isYes",
          "type": "bool"
        },
        {
          "internalType": "uint256",
          "name": "_amount",
          "type": "uint256"
        }
      ],
      "name": "placeBet",
      "outputs": [],
      "stateMutability": "nonpayable",
      "type": "function"
    },
    {
      "inputs": [
        {
          "internalType": "uint256",
          "name": "_marketId",
          "type": "uint256"
        },
        {
          "internalType": "bool",
          "name": "_yesWon",
          "type": "bool"
        }
      ],
      "name": "resolveMarket",
      "outputs": [],
      "stateMutability": "nonpayable",
      "type": "function"
    },
    {
      "inputs": [
        {
          "internalType": "uint256",
          "name": "_feePercent",
          "type": "uint256"
        }
      ],
      "name": "setFeePercent",
      "outputs": [],
      "stateMutability": "nonpayable",
      "type": "function"
    },
    {
      "inputs": [
        {
          "internalType": "address",
          "name": "newOwner",
          "type": "address"
        }
      ],
      "name": "transferOwnership",
      "outputs": [],
      "stateMutability": "nonpayable",
      "type": "function"
    },
    {
      "inputs": [],
      "name": "usdt",
      "outputs": [
        {
          "internalType": "contract IERC20",
          "name": "",
          "type": "address"
        }
      ],
      "stateMutability": "view",
      "type": "function"
    },
    {
      "inputs": [],
      "name": "withdrawFees",
      "outputs": [],
      "stateMutability": "nonpayable",
      "type": "function"
    }
  ],
  "bytecode": "0x6080604052600280553480156200001557600080fd5b5060405162002b2238038062002b2283398181016040528101906200003b91906200012d565b336000806101000a81548173ffffffffffffffffffffffffffffffffffffffff021916908373ffffffffffffffffffffffffffffffffffffffff16021790555080600160006101000a81548173ffffffffffffffffffffffffffffffffffffffff021916908373ffffffffffffffffffffffffffffffffffffffff160217905550506200015f565b600080fd5b600073ffffffffffffffffffffffffffffffffffffffff82169050919050565b6000620000f582620000c8565b9050919050565b6200010781620000e8565b81146200011357600080fd5b50565b6000815190506200012781620000fc565b92915050565b600060208284031215620001465762000145620000c3565b5b6000620001568482850162000116565b91505092915050565b6129b3806200016f6000396000f3fe608060405234801561001057600080fd5b506004361061010b5760003560e01c80638da5cb5b116100a2578063e0950ddf11610071578063e0950ddf14610272578063eb44fdd3146102a2578063ec979082146102d2578063f2fde38b146102f0578063f644b3bb1461030c5761010b565b80638da5cb5b146101e25780639003adfe14610200578063b1283e771461021e578063d54a8d18146102545761010b565b806357bde446116100de57806357bde44614610170578063677bd9ff1461018c5780637ce3489b146101a85780637fd6f15c146101c45761010b565b80631a38cac6146101105780632f48ab7d1461012c578063476343ee1461014a57806354888f5514610154575b600080fd5b61012a60048036038101906101259190611726565b61033e565b005b610134610751565b60405161014191906117f8565b60405180910390f35b610152610777565b005b61016e60048036038101906101699190611959565b6109c7565b005b61018a600480360381019061018591906119a2565b610b96565b005b6101a660048036038101906101a191906119e2565b610d54565b005b6101c260048036038101906101bd91906119e2565b6110c5565b005b6101cc6111a1565b6040516101d99190611a1e565b60405180910390f35b6101ea6111a7565b6040516101f79190611a5a565b60405180910390f35b6102086111cb565b6040516102159190611a1e565b60405180910390f35b610238600480360381019061023391906119e2565b6111d1565b60405161024b9796959493929190611b03565b60405180910390f35b61025c6112c2565b6040516102699190611a1e565b60405180910390f35b61028c60048036038101906102879190611ba5565b6112cc565b6040516102999190611c45565b60405180910390f35b6102bc60048036038101906102b791906119e2565b611377565b6040516102c99190611d46565b60405180910390f35b6102da6114a5565b6040516102e79190611a1e565b60405180910390f35b61030a60048036038101906103059190611d68565b6114ab565b005b61032660048036038101906103219190611ba5565b6115eb565b60405161033593929190611d95565b60405180910390f35b60006004600085815260200190815260200160002090508060040160029054906101000a900460ff166103a6576040517f08c379a000000000000000000000000000000000000000000000000000000000815260040161039d90611e18565b60405180910390fd5b8060040160009054906101000a900460ff16156103f8576040517f08c379a00000000000000000000000000000000000000000000000000000000081526004016103ef90611e84565b60405180910390fd5b6000821161043b576040517f08c379a000000000000000000000000000000000000000000000000000000000815260040161043290611ef0565b60405180910390fd5b60006005600086815260200190815260200160002060003373ffffffffffffffffffffffffffffffffffffffff1673ffffffffffffffffffffffffffffffffffffffff16815260200190815260200160002060000154146104d1576040517f08c379a00000000000000000000000000000000000000000000000000000000081526004016104c890611f5c565b60405180910390fd5b60006064600254846104e39190611fab565b6104ed919061201c565b9050600081846104fd919061204d565b905081600360008282546105119190612081565b92505081905550600160009054906101000a900473ffffffffffffffffffffffffffffffffffffffff1673ffffffffffffffffffffffffffffffffffffffff166323b872dd3330876040518463ffffffff1660e01b8152600401610577939291906120b5565b6020604051808303816000875af1158015610596573d6000803e3d6000fd5b505050506040513d601f19601f820116820180604052508101906105ba9190612101565b6105f9576040517f08c379a00000000000000000000000000000000000000000000000000000000081526004016105f09061217a565b60405180910390fd5b60405180606001604052808281526020018615158152602001600015158152506005600088815260200190815260200160002060003373ffffffffffffffffffffffffffffffffffffffff1673ffffffffffffffffffffffffffffffffffffffff1681526020019081526020016000206000820151816000015560208201518160010160006101000a81548160ff02191690831515021790555060408201518160010160016101000a81548160ff02191690831515021790555090505084156106dc57808360020160008282546106d09190612081565b925050819055506106f8565b808360030160008282546106f09190612081565b925050819055505b3373ffffffffffffffffffffffffffffffffffffffff16867f4af71b021e799c62c158bd54636ca8da2fa26115a21a2dc6efe486ec104fd15f878460405161074192919061219a565b60405180910390a3505050505050565b600160009054906101000a900473ffffffffffffffffffffffffffffffffffffffff1681565b60008054906101000a900473ffffffffffffffffffffffffffffffffffffffff1673ffffffffffffffffffffffffffffffffffffffff163373ffffffffffffffffffffffffffffffffffffffff1614610805576040517f08c379a00000000000000000000000000000000000000000000000000000000081526004016107fc9061220f565b60405180910390fd5b600060035490506000811161084f576040517f08c379a00000000000000000000000000000000000000000000000000000000081526004016108469061227b565b60405180910390fd5b6000600381905550600160009054906101000a900473ffffffffffffffffffffffffffffffffffffffff1673ffffffffffffffffffffffffffffffffffffffff1663a9059cbb60008054906101000a900473ffffffffffffffffffffffffffffffffffffffff16836040518363ffffffff1660e01b81526004016108d492919061229b565b6020604051808303816000875af11580156108f3573d6000803e3d6000fd5b505050506040513d601f19601f820116820180604052508101906109179190612101565b610956576040517f08c379a000000000000000000000000000000000000000000000000000000000815260040161094d90612310565b60405180910390fd5b60008054906101000a900473ffffffffffffffffffffffffffffffffffffffff1673ffffffffffffffffffffffffffffffffffffffff167fc0819c13be868895eb93e40eaceb96de976442fa1d404e5c55f14bb65a8c489a826040516109bc9190611a1e565b60405180910390a250565b60008054906101000a900473ffffffffffffffffffffffffffffffffffffffff1673ffffffffffffffffffffffffffffffffffffffff163373ffffffffffffffffffffffffffffffffffffffff1614610a55576040517f08c379a0000000000000000000000000000000000000000000000000000000008152600401610a4c9061220f565b60405180910390fd5b60066000815480929190610a6890612330565b91905055506040518060e001604052806006548152602001828152602001600081526020016000815260200160001515815260200160001515815260200160011515815250600460006006548152602001908152602001600020600082015181600001556020820151816001019081610ae1919061257a565b50604082015181600201556060820151816003015560808201518160040160006101000a81548160ff02191690831515021790555060a08201518160040160016101000a81548160ff02191690831515021790555060c08201518160040160026101000a81548160ff0219169083151502179055509050506006547f218577c5bc2b73a2bfcbd5e49be9f73d7baadac57a71efdffe54f3b4489cc0ab82604051610b8b919061264c565b60405180910390a250565b60008054906101000a900473ffffffffffffffffffffffffffffffffffffffff1673ffffffffffffffffffffffffffffffffffffffff163373ffffffffffffffffffffffffffffffffffffffff1614610c24576040517f08c379a0000000000000000000000000000000000000000000000000000000008152600401610c1b9061220f565b60405180910390fd5b60006004600084815260200190815260200160002090508060040160029054906101000a900460ff16610c8c576040517f08c379a0000000000000000000000000000000000000000000000000000000008152600401610c8390611e18565b60405180910390fd5b8060040160009054906101000a900460ff1615610cde576040517f08c379a0000000000000000000000000000000000000000000000000000000008152600401610cd5906126ba565b60405180910390fd5b60018160040160006101000a81548160ff021916908315150217905550818160040160016101000a81548160ff021916908315150217905550827f4927fe38919783250023d27e65a3e56b6b5c3e49364e51674a41ef08d62460d983604051610d4791906126da565b60405180910390a2505050565b60006004600083815260200190815260200160002090508060040160009054906101000a900460ff16610dbc576040517f08c379a0000000000000000000000000000000000000000000000000000000008152600401610db390612741565b60405180910390fd5b60006005600084815260200190815260200160002060003373ffffffffffffffffffffffffffffffffffffffff1673ffffffffffffffffffffffffffffffffffffffff16815260200190815260200160002090506000816000015411610e57576040517f08c379a0000000000000000000000000000000000000000000000000000000008152600401610e4e906127ad565b60405180910390fd5b8060010160019054906101000a900460ff1615610ea9576040517f08c379a0000000000000000000000000000000000000000000000000000000008152600401610ea090612819565b60405180910390fd5b8160040160019054906101000a900460ff1615158160010160009054906101000a900460ff16151514610f11576040517f08c379a0000000000000000000000000000000000000000000000000000000008152600401610f0890612885565b60405180910390fd5b60018160010160016101000a81548160ff021916908315150217905550600082600301548360020154610f449190612081565b905060008360040160019054906101000a900460ff16610f68578360030154610f6e565b83600201545b9050600081838560000154610f839190611fab565b610f8d919061201c565b9050600160009054906101000a900473ffffffffffffffffffffffffffffffffffffffff1673ffffffffffffffffffffffffffffffffffffffff1663a9059cbb33836040518363ffffffff1660e01b8152600401610fec92919061229b565b6020604051808303816000875af115801561100b573d6000803e3d6000fd5b505050506040513d601f19601f8201168201806040525081019061102f9190612101565b61106e576040517f08c379a000000000000000000000000000000000000000000000000000000000815260040161106590612310565b60405180910390fd5b3373ffffffffffffffffffffffffffffffffffffffff16867f5380cf6fe903b40c6d5a9e0dfbca2f3a423f0a21520b4d5947ed5169bdba946d836040516110b59190611a1e565b60405180910390a3505050505050565b60008054906101000a900473ffffffffffffffffffffffffffffffffffffffff1673ffffffffffffffffffffffffffffffffffffffff163373ffffffffffffffffffffffffffffffffffffffff1614611153576040517f08c379a000000000000000000000000000000000000000000000000000000000815260040161114a9061220f565b60405180910390fd5b6005811115611197576040517f08c379a000000000000000000000000000000000000000000000000000000000815260040161118e906128f1565b60405180910390fd5b8060028190555050565b60025481565b60008054906101000a900473ffffffffffffffffffffffffffffffffffffffff1681565b60035481565b60046020528060005260406000206000915090508060000154908060010180546111fa906123a7565b80601f0160208091040260200160405190810160405280929190818152602001828054611226906123a7565b80156112735780601f1061124857610100808354040283529160200191611273565b820191906000526020600020905b81548152906001019060200180831161125657829003601f168201915b5050505050908060020154908060030154908060040160009054906101000a900460ff16908060040160019054906101000a900460ff16908060040160029054906101000a900460ff16905087565b6000600354905090565b6112d461163c565b6005600084815260200190815260200160002060008373ffffffffffffffffffffffffffffffffffffffff1673ffffffffffffffffffffffffffffffffffffffff168152602001908152602001600020604051806060016040529081600082015481526020016001820160009054906101000a900460ff161515151581526020016001820160019054906101000a900460ff161515151581525050905092915050565b61137f611661565b600460008381526020019081526020016000206040518060e0016040529081600082015481526020016001820180546113b7906123a7565b80601f01602080910402602001604051908101604052809291908181526020018280546113e3906123a7565b80156114305780601f1061140557610100808354040283529160200191611430565b820191906000526020600020905b81548152906001019060200180831161141357829003601f168201915b5050505050815260200160028201548152602001600382015481526020016004820160009054906101000a900460ff161515151581526020016004820160019054906101000a900460ff161515151581526020016004820160029054906101000a900460ff1615151515815250509050919050565b60065481565b60008054906101000a900473ffffffffffffffffffffffffffffffffffffffff1673ffffffffffffffffffffffffffffffffffffffff163373ffffffffffffffffffffffffffffffffffffffff1614611539576040517f08c379a00000000000000000000000000000000000000000000000000000000081526004016115309061220f565b60405180910390fd5b600073ffffffffffffffffffffffffffffffffffffffff168173ffffffffffffffffffffffffffffffffffffffff16036115a8576040517f08c379a000000000000000000000000000000000000000000000000000000000815260040161159f9061295d565b60405180910390fd5b806000806101000a81548173ffffffffffffffffffffffffffffffffffffffff021916908373ffffffffffffffffffffffffffffffffffffffff16021790555050565b6005602052816000526040600020602052806000526040600020600091509150508060000154908060010160009054906101000a900460ff16908060010160019054906101000a900460ff16905083565b6040518060600160405280600081526020016000151581526020016000151581525090565b6040518060e00160405280600081526020016060815260200160008152602001600081526020016000151581526020016000151581526020016000151581525090565b6000604051905090565b600080fd5b600080fd5b6000819050919050565b6116cb816116b8565b81146116d657600080fd5b50565b6000813590506116e8816116c2565b92915050565b60008115159050919050565b611703816116ee565b811461170e57600080fd5b50565b600081359050611720816116fa565b92915050565b60008060006060848603121561173f5761173e6116ae565b5b600061174d868287016116d9565b935050602061175e86828701611711565b925050604061176f868287016116d9565b9150509250925092565b600073ffffffffffffffffffffffffffffffffffffffff82169050919050565b6000819050919050565b60006117be6117b96117b484611779565b611799565b611779565b9050919050565b60006117d0826117a3565b9050919050565b60006117e2826117c5565b9050919050565b6117f2816117d7565b82525050565b600060208201905061180d60008301846117e9565b92915050565b600080fd5b600080fd5b6000601f19601f8301169050919050565b7f4e487b7100000000000000000000000000000000000000000000000000000000600052604160045260246000fd5b6118668261181d565b810181811067ffffffffffffffff821117156118855761188461182e565b5b80604052505050565b60006118986116a4565b90506118a4828261185d565b919050565b600067ffffffffffffffff8211156118c4576118c361182e565b5b6118cd8261181d565b9050602081019050919050565b82818337600083830152505050565b60006118fc6118f7846118a9565b61188e565b90508281526020810184848401111561191857611917611818565b5b6119238482856118da565b509392505050565b600082601f8301126119405761193f611813565b5b81356119508482602086016118e9565b91505092915050565b60006020828403121561196f5761196e6116ae565b5b600082013567ffffffffffffffff81111561198d5761198c6116b3565b5b6119998482850161192b565b91505092915050565b600080604083850312156119b9576119b86116ae565b5b60006119c7858286016116d9565b92505060206119d885828601611711565b9150509250929050565b6000602082840312156119f8576119f76116ae565b5b6000611a06848285016116d9565b91505092915050565b611a18816116b8565b82525050565b6000602082019050611a336000830184611a0f565b92915050565b6000611a4482611779565b9050919050565b611a5481611a39565b82525050565b6000602082019050611a6f6000830184611a4b565b92915050565b600081519050919050565b600082825260208201905092915050565b60005b83811015611aaf578082015181840152602081019050611a94565b60008484015250505050565b6000611ac682611a75565b611ad08185611a80565b9350611ae0818560208601611a91565b611ae98161181d565b840191505092915050565b611afd816116ee565b82525050565b600060e082019050611b18600083018a611a0f565b8181036020830152611b2a8189611abb565b9050611b396040830188611a0f565b611b466060830187611a0f565b611b536080830186611af4565b611b6060a0830185611af4565b611b6d60c0830184611af4565b98975050505050505050565b611b8281611a39565b8114611b8d57600080fd5b50565b600081359050611b9f81611b79565b92915050565b60008060408385031215611bbc57611bbb6116ae565b5b6000611bca858286016116d9565b9250506020611bdb85828601611b90565b9150509250929050565b611bee816116b8565b82525050565b611bfd816116ee565b82525050565b606082016000820151611c196000850182611be5565b506020820151611c2c6020850182611bf4565b506040820151611c3f6040850182611bf4565b50505050565b6000606082019050611c5a6000830184611c03565b92915050565b600082825260208201905092915050565b6000611c7c82611a75565b611c868185611c60565b9350611c96818560208601611a91565b611c9f8161181d565b840191505092915050565b600060e083016000830151611cc26000860182611be5565b5060208301518482036020860152611cda8282611c71565b9150506040830151611cef6040860182611be5565b506060830151611d026060860182611be5565b506080830151611d156080860182611bf4565b5060a0830151611d2860a0860182611bf4565b5060c0830151611d3b60c0860182611bf4565b508091505092915050565b60006020820190508181036000830152611d608184611caa565b905092915050565b600060208284031215611d7e57611d7d6116ae565b5b6000611d8c84828501611b90565b91505092915050565b6000606082019050611daa6000830186611a0f565b611db76020830185611af4565b611dc46040830184611af4565b949350505050565b7f4d61726b657420646f6573206e6f742065786973740000000000000000000000600082015250565b6000611e02601583611a80565b9150611e0d82611dcc565b602082019050919050565b60006020820190508181036000830152611e3181611df5565b9050919050565b7f4d61726b657420616c7265616479207265736f6c766564000000000000000000600082015250565b6000611e6e601783611a80565b9150611e7982611e38565b602082019050919050565b60006020820190508181036000830152611e9d81611e61565b9050919050565b7f416d6f756e74206d7573742062652067726561746572207468616e2030000000600082015250565b6000611eda601d83611a80565b9150611ee582611ea4565b602082019050919050565b60006020820190508181036000830152611f0981611ecd565b9050919050565b7f416c726561647920626574206f6e2074686973206d61726b6574000000000000600082015250565b6000611f46601a83611a80565b9150611f5182611f10565b602082019050919050565b60006020820190508181036000830152611f7581611f39565b9050919050565b7f4e487b7100000000000000000000000000000000000000000000000000000000600052601160045260246000fd5b6000611fb6826116b8565b9150611fc1836116b8565b9250828202611fcf816116b8565b91508282048414831517611fe657611fe5611f7c565b5b5092915050565b7f4e487b7100000000000000000000000000000000000000000000000000000000600052601260045260246000fd5b6000612027826116b8565b9150612032836116b8565b92508261204257612041611fed565b5b828204905092915050565b6000612058826116b8565b9150612063836116b8565b925082820390508181111561207b5761207a611f7c565b5b92915050565b600061208c826116b8565b9150612097836116b8565b92508282019050808211156120af576120ae611f7c565b5b92915050565b60006060820190506120ca6000830186611a4b565b6120d76020830185611a4b565b6120e46040830184611a0f565b949350505050565b6000815190506120fb816116fa565b92915050565b600060208284031215612117576121166116ae565b5b6000612125848285016120ec565b91505092915050565b7f55534454207472616e73666572206661696c6564000000000000000000000000600082015250565b6000612164601483611a80565b915061216f8261212e565b602082019050919050565b6000602082019050818103600083015261219381612157565b9050919050565b60006040820190506121af6000830185611af4565b6121bc6020830184611a0f565b9392505050565b7f4e6f74206f776e65720000000000000000000000000000000000000000000000600082015250565b60006121f9600983611a80565b9150612204826121c3565b602082019050919050565b60006020820190508181036000830152612228816121ec565b9050919050565b7f4e6f206665657320746f20776974686472617700000000000000000000000000600082015250565b6000612265601383611a80565b91506122708261222f565b602082019050919050565b6000602082019050818103600083015261229481612258565b9050919050565b60006040820190506122b06000830185611a4b565b6122bd6020830184611a0f565b9392505050565b7f5472616e73666572206661696c65640000000000000000000000000000000000600082015250565b60006122fa600f83611a80565b9150612305826122c4565b602082019050919050565b60006020820190508181036000830152612329816122ed565b9050919050565b600061233b826116b8565b91507fffffffffffffffffffffffffffffffffffffffffffffffffffffffffffffffff820361236d5761236c611f7c565b5b600182019050919050565b7f4e487b7100000000000000000000000000000000000000000000000000000000600052602260045260246000fd5b600060028204905060018216806123bf57607f821691505b6020821081036123d2576123d1612378565b5b50919050565b60008190508160005260206000209050919050565b60006020601f8301049050919050565b600082821b905092915050565b60006008830261243a7fffffffffffffffffffffffffffffffffffffffffffffffffffffffffffffffff826123fd565b61244486836123fd565b95508019841693508086168417925050509392505050565b600061247761247261246d846116b8565b611799565b6116b8565b9050919050565b6000819050919050565b6124918361245c565b6124a561249d8261247e565b84845461240a565b825550505050565b600090565b6124ba6124ad565b6124c5818484612488565b505050565b5b818110156124e9576124de6000826124b2565b6001810190506124cb565b5050565b601f82111561252e576124ff816123d8565b612508846123ed565b81016020851015612517578190505b61252b612523856123ed565b8301826124ca565b50505b505050565b600082821c905092915050565b600061255160001984600802612533565b1980831691505092915050565b600061256a8383612540565b9150826002028217905092915050565b61258382611a75565b67ffffffffffffffff81111561259c5761259b61182e565b5b6125a682546123a7565b6125b18282856124ed565b600060209050601f8311600181146125e457600084156125d2578287015190505b6125dc858261255e565b865550612644565b601f1984166125f2866123d8565b60005b8281101561261a578489015182556001820191506020850194506020810190506125f5565b868310156126375784890151612633601f891682612540565b8355505b6001600288020188555050505b505050505050565b600060208201905081810360008301526126668184611abb565b905092915050565b7f416c7265616479207265736f6c76656400000000000000000000000000000000600082015250565b60006126a4601083611a80565b91506126af8261266e565b602082019050919050565b600060208201905081810360008301526126d381612697565b9050919050565b60006020820190506126ef6000830184611af4565b92915050565b7f4d61726b6574206e6f74207265736f6c76656420796574000000000000000000600082015250565b600061272b601783611a80565b9150612736826126f5565b602082019050919050565b6000602082019050818103600083015261275a8161271e565b9050919050565b7f4e6f2062657420666f756e640000000000000000000000000000000000000000600082015250565b6000612797600c83611a80565b91506127a282612761565b602082019050919050565b600060208201905081810360008301526127c68161278a565b9050919050565b7f416c726561647920636c61696d65640000000000000000000000000000000000600082015250565b6000612803600f83611a80565b915061280e826127cd565b602082019050919050565b60006020820190508181036000830152612832816127f6565b9050919050565b7f596f7520646964206e6f742077696e0000000000000000000000000000000000600082015250565b600061286f600f83611a80565b915061287a82612839565b602082019050919050565b6000602082019050818103600083015261289e81612862565b9050919050565b7f46656520746f6f20686967680000000000000000000000000000000000000000600082015250565b60006128db600c83611a80565b91506128e6826128a5565b602082019050919050565b6000602082019050818103600083015261290a816128ce565b9050919050565b7f496e76616c696420616464726573730000000000000000000000000000000000600082015250565b6000612947600f83611a80565b915061295282612911565b602082019050919050565b600060208201905081810360008301526129768161293a565b905091905056fea2646970667358221220e1170a2d6501f752df0cb218b392e65935544f6788dfa4671d74c5640618039564736f6c63430008130033",
  "linkReferences": {},
  "deployedLinkReferences": {}
}