{
  "_format": "hh-sol-artifact-1",
  "contractName": "SouthPredict",
  "sourceName": "contracts/SouthPredict.sol",
  "abi": [
    {
      "inputs": [
        {
          "internalType": "address",
          "name": "_usdc",
          "type": "address"
        }
      ],
      "stateMutability": "nonpayable",
      "type": "constructor"
    },
    {
      "anonymous": false,
      "inputs": [
        {
          "indexed": true,
          "internalType": "uint256",
          "name": "marketId",
          "type": "uint256"
        },
        {
          "indexed": true,
          "internalType": "address",
          "name": "bettor",
          "type": "address"
        },
        {
          "indexed": false,
          "internalType": "bool",
          "name": "isYes",
          "type": "bool"
        },
        {
          "indexed": false,
          "internalType": "uint256",
          "name": "amount",
          "type": "uint256"
        }
      ],
      "name": "BetPlaced",
      "type": "event"
    },
    {
      "anonymous": false,
      "inputs": [
        {
          "indexed": true,
          "internalType": "uint256",
          "name": "marketId",
          "type": "uint256"
        },
        {
          "indexed": false,
          "internalType": "string",
          "name": "question",
          "type": "string"
        }
      ],
      "name": "MarketCreated",
      "type": "event"
    },
    {
      "anonymous": false,
      "inputs": [
        {
          "indexed": true,
          "internalType": "uint256",
          "name": "marketId",
          "type": "uint256"
        },
        {
          "indexed": false,
          "internalType": "bool",
          "name": "yesWon",
          "type": "bool"
        }
      ],
      "name": "MarketResolved",
      "type": "event"
    },
    {
      "anonymous": false,
      "inputs": [
        {
          "indexed": true,
          "internalType": "uint256",
          "name": "marketId",
          "type": "uint256"
        },
        {
          "indexed": true,
          "internalType": "address",
          "name": "bettor",
          "type": "address"
        },
        {
          "indexed": false,
          "internalType": "uint256",
          "name": "amount",
          "type": "uint256"
        }
      ],
      "name": "WinningsClaimed",
      "type": "event"
    },
    {
      "inputs": [
        {
          "internalType": "uint256",
          "name": "",
          "type": "uint256"
        },
        {
          "internalType": "address",
          "name": "",
          "type": "address"
        }
      ],
      "name": "bets",
      "outputs": [
        {
          "internalType": "uint256",
          "name": "amount",
          "type": "uint256"
        },
        {
          "internalType": "bool",
          "name": "isYes",
          "type": "bool"
        },
        {
          "internalType": "bool",
          "name": "claimed",
          "type": "bool"
        }
      ],
      "stateMutability": "view",
      "type": "function"
    },
    {
      "inputs": [
        {
          "internalType": "uint256",
          "name": "_marketId",
          "type": "uint256"
        }
      ],
      "name": "claimWinnings",
      "outputs": [],
      "stateMutability": "nonpayable",
      "type": "function"
    },
    {
      "inputs": [
        {
          "internalType": "string",
          "name": "_question",
          "type": "string"
        }
      ],
      "name": "createMarket",
      "outputs": [],
      "stateMutability": "nonpayable",
      "type": "function"
    },
    {
      "inputs": [
        {
          "internalType": "uint256",
          "name": "_marketId",
          "type": "uint256"
        },
        {
          "internalType": "address",
          "name": "_bettor",
          "type": "address"
        }
      ],
      "name": "getBet",
      "outputs": [
        {
          "components": [
            {
              "internalType": "uint256",
              "name": "amount",
              "type": "uint256"
            },
            {
              "internalType": "bool",
              "name": "isYes",
              "type": "bool"
            },
            {
              "internalType": "bool",
              "name": "claimed",
              "type": "bool"
            }
          ],
          "internalType": "struct SouthPredict.Bet",
          "name": "",
          "type": "tuple"
        }
      ],
      "stateMutability": "view",
      "type": "function"
    },
    {
      "inputs": [
        {
          "internalType": "uint256",
          "name": "_marketId",
          "type": "uint256"
        }
      ],
      "name": "getMarket",
      "outputs": [
        {
          "components": [
            {
              "internalType": "uint256",
              "name": "id",
              "type": "uint256"
            },
            {
              "internalType": "string",
              "name": "question",
              "type": "string"
            },
            {
              "internalType": "uint256",
              "name": "yesPool",
              "type": "uint256"
            },
            {
              "internalType": "uint256",
              "name": "noPool",
              "type": "uint256"
            },
            {
              "internalType": "bool",
              "name": "resolved",
              "type": "bool"
            },
            {
              "internalType": "bool",
              "name": "yesWon",
              "type": "bool"
            },
            {
              "internalType": "bool",
              "name": "exists",
              "type": "bool"
            }
          ],
          "internalType": "struct SouthPredict.Market",
          "name": "",
          "type": "tuple"
        }
      ],
      "stateMutability": "view",
      "type": "function"
    },
    {
      "inputs": [],
      "name": "marketCount",
      "outputs": [
        {
          "internalType": "uint256",
          "name": "",
          "type": "uint256"
        }
      ],
      "stateMutability": "view",
      "type": "function"
    },
    {
      "inputs": [
        {
          "internalType": "uint256",
          "name": "",
          "type": "uint256"
        }
      ],
      "name": "markets",
      "outputs": [
        {
          "internalType": "uint256",
          "name": "id",
          "type": "uint256"
        },
        {
          "internalType": "string",
          "name": "question",
          "type": "string"
        },
        {
          "internalType": "uint256",
          "name": "yesPool",
          "type": "uint256"
        },
        {
          "internalType": "uint256",
          "name": "noPool",
          "type": "uint256"
        },
        {
          "internalType": "bool",
          "name": "resolved",
          "type": "bool"
        },
        {
          "internalType": "bool",
          "name": "yesWon",
          "type": "bool"
        },
        {
          "internalType": "bool",
          "name": "exists",
          "type": "bool"
        }
      ],
      "stateMutability": "view",
      "type": "function"
    },
    {
      "inputs": [],
      "name": "owner",
      "outputs": [
        {
          "internalType": "address",
          "name": "",
          "type": "address"
        }
      ],
      "stateMutability": "view",
      "type": "function"
    },
    {
      "inputs": [
        {
          "internalType": "uint256",
          "name": "_marketId",
          "type": "uint256"
        },
        {
          "internalType": "bool",
          "name": "_isYes",
          "type": "bool"
        },
        {
          "internalType": "uint256",
          "name": "_amount",
          "type": "uint256"
        }
      ],
      "name": "placeBet",
      "outputs": [],
      "stateMutability": "nonpayable",
      "type": "function"
    },
    {
      "inputs": [
        {
          "internalType": "uint256",
          "name": "_marketId",
          "type": "uint256"
        },
        {
          "internalType": "bool",
          "name": "_yesWon",
          "type": "bool"
        }
      ],
      "name": "resolveMarket",
      "outputs": [],
      "stateMutability": "nonpayable",
      "type": "function"
    },
    {
      "inputs": [],
      "name": "usdc",
      "outputs": [
        {
          "internalType": "contract IERC20",
          "name": "",
          "type": "address"
        }
      ],
      "stateMutability": "view",
      "type": "function"
    }
  ],
  "bytecode": "0x60806040523480156200001157600080fd5b50604051620023b0380380620023b0833981810160405281019062000037919062000129565b336000806101000a81548173ffffffffffffffffffffffffffffffffffffffff021916908373ffffffffffffffffffffffffffffffffffffffff16021790555080600160006101000a81548173ffffffffffffffffffffffffffffffffffffffff021916908373ffffffffffffffffffffffffffffffffffffffff160217905550506200015b565b600080fd5b600073ffffffffffffffffffffffffffffffffffffffff82169050919050565b6000620000f182620000c4565b9050919050565b6200010381620000e4565b81146200010f57600080fd5b50565b6000815190506200012381620000f8565b92915050565b600060208284031215620001425762000141620000bf565b5b6000620001528482850162000112565b91505092915050565b612245806200016b6000396000f3fe608060405234801561001057600080fd5b50600436106100a95760003560e01c80638da5cb5b116100715780638da5cb5b1461013c578063b1283e771461015a578063e0950ddf14610190578063eb44fdd3146101c0578063ec979082146101f0578063f644b3bb1461020e576100a9565b80631a38cac6146100ae5780633e413bee146100ca57806354888f55146100e857806357bde44614610104578063677bd9ff14610120575b600080fd5b6100c860048036038101906100c3919061115d565b610240565b005b6100d261060a565b6040516100df919061122f565b60405180910390f35b61010260048036038101906100fd9190611390565b610630565b005b61011e600480360381019061011991906113d9565b6107ff565b005b61013a60048036038101906101359190611419565b6109bd565b005b610144610d2e565b6040516101519190611467565b60405180910390f35b610174600480360381019061016f9190611419565b610d52565b604051610187979695949392919061151f565b60405180910390f35b6101aa60048036038101906101a591906115c1565b610e43565b6040516101b79190611661565b60405180910390f35b6101da60048036038101906101d59190611419565b610eee565b6040516101e79190611762565b60405180910390f35b6101f861101c565b6040516102059190611784565b60405180910390f35b610228600480360381019061022391906115c1565b611022565b6040516102379392919061179f565b60405180910390f35b60006002600085815260200190815260200160002090508060040160029054906101000a900460ff166102a8576040517f08c379a000000000000000000000000000000000000000000000000000000000815260040161029f90611822565b60405180910390fd5b8060040160009054906101000a900460ff16156102fa576040517f08c379a00000000000000000000000000000000000000000000000000000000081526004016102f19061188e565b60405180910390fd5b6000821161033d576040517f08c379a0000000000000000000000000000000000000000000000000000000008152600401610334906118fa565b60405180910390fd5b60006003600086815260200190815260200160002060003373ffffffffffffffffffffffffffffffffffffffff1673ffffffffffffffffffffffffffffffffffffffff16815260200190815260200160002060000154146103d3576040517f08c379a00000000000000000000000000000000000000000000000000000000081526004016103ca90611966565b60405180910390fd5b600160009054906101000a900473ffffffffffffffffffffffffffffffffffffffff1673ffffffffffffffffffffffffffffffffffffffff166323b872dd3330856040518463ffffffff1660e01b815260040161043293929190611986565b6020604051808303816000875af1158015610451573d6000803e3d6000fd5b505050506040513d601f19601f8201168201806040525081019061047591906119d2565b6104b4576040517f08c379a00000000000000000000000000000000000000000000000000000000081526004016104ab90611a4b565b60405180910390fd5b60405180606001604052808381526020018415158152602001600015158152506003600086815260200190815260200160002060003373ffffffffffffffffffffffffffffffffffffffff1673ffffffffffffffffffffffffffffffffffffffff1681526020019081526020016000206000820151816000015560208201518160010160006101000a81548160ff02191690831515021790555060408201518160010160016101000a81548160ff0219169083151502179055509050508215610597578181600201600082825461058b9190611a9a565b925050819055506105b3565b818160030160008282546105ab9190611a9a565b925050819055505b3373ffffffffffffffffffffffffffffffffffffffff16847f4af71b021e799c62c158bd54636ca8da2fa26115a21a2dc6efe486ec104fd15f85856040516105fc929190611ace565b60405180910390a350505050565b600160009054906101000a900473ffffffffffffffffffffffffffffffffffffffff1681565b60008054906101000a900473ffffffffffffffffffffffffffffffffffffffff1673ffffffffffffffffffffffffffffffffffffffff163373ffffffffffffffffffffffffffffffffffffffff16146106be576040517f08c379a00000000000000000000000000000000000000000000000000000000081526004016106b590611b43565b60405180910390fd5b600460008154809291906106d190611b63565b91905055506040518060e00160405280600454815260200182815260200160008152602001600081526020016000151581526020016000151581526020016001151581525060026000600454815260200190815260200160002060008201518160000155602082015181600101908161074a9190611dad565b50604082015181600201556060820151816003015560808201518160040160006101000a81548160ff02191690831515021790555060a08201518160040160016101000a81548160ff02191690831515021790555060c08201518160040160026101000a81548160ff0219169083151502179055509050506004547f218577c5bc2b73a2bfcbd5e49be9f73d7baadac57a71efdffe54f3b4489cc0ab826040516107f49190611e7f565b60405180910390a250565b60008054906101000a900473ffffffffffffffffffffffffffffffffffffffff1673ffffffffffffffffffffffffffffffffffffffff163373ffffffffffffffffffffffffffffffffffffffff161461088d576040517f08c379a000000000000000000000000000000000000000000000000000000000815260040161088490611b43565b60405180910390fd5b60006002600084815260200190815260200160002090508060040160029054906101000a900460ff166108f5576040517f08c379a00000000000000000000000000000000000000000000000000000000081526004016108ec90611822565b60405180910390fd5b8060040160009054906101000a900460ff1615610947576040517f08c379a000000000000000000000000000000000000000000000000000000000815260040161093e90611eed565b60405180910390fd5b60018160040160006101000a81548160ff021916908315150217905550818160040160016101000a81548160ff021916908315150217905550827f4927fe38919783250023d27e65a3e56b6b5c3e49364e51674a41ef08d62460d9836040516109b09190611f0d565b60405180910390a2505050565b60006002600083815260200190815260200160002090508060040160009054906101000a900460ff16610a25576040517f08c379a0000000000000000000000000000000000000000000000000000000008152600401610a1c90611f74565b60405180910390fd5b60006003600084815260200190815260200160002060003373ffffffffffffffffffffffffffffffffffffffff1673ffffffffffffffffffffffffffffffffffffffff16815260200190815260200160002090506000816000015411610ac0576040517f08c379a0000000000000000000000000000000000000000000000000000000008152600401610ab790611fe0565b60405180910390fd5b8060010160019054906101000a900460ff1615610b12576040517f08c379a0000000000000000000000000000000000000000000000000000000008152600401610b099061204c565b60405180910390fd5b8160040160019054906101000a900460ff1615158160010160009054906101000a900460ff16151514610b7a576040517f08c379a0000000000000000000000000000000000000000000000000000000008152600401610b71906120b8565b60405180910390fd5b60018160010160016101000a81548160ff021916908315150217905550600082600301548360020154610bad9190611a9a565b905060008360040160019054906101000a900460ff16610bd1578360030154610bd7565b83600201545b9050600081838560000154610bec91906120d8565b610bf69190612149565b9050600160009054906101000a900473ffffffffffffffffffffffffffffffffffffffff1673ffffffffffffffffffffffffffffffffffffffff1663a9059cbb33836040518363ffffffff1660e01b8152600401610c5592919061217a565b6020604051808303816000875af1158015610c74573d6000803e3d6000fd5b505050506040513d601f19601f82011682018060405250810190610c9891906119d2565b610cd7576040517f08c379a0000000000000000000000000000000000000000000000000000000008152600401610cce906121ef565b60405180910390fd5b3373ffffffffffffffffffffffffffffffffffffffff16867f5380cf6fe903b40c6d5a9e0dfbca2f3a423f0a21520b4d5947ed5169bdba946d83604051610d1e9190611784565b60405180910390a3505050505050565b60008054906101000a900473ffffffffffffffffffffffffffffffffffffffff1681565b6002602052806000526040600020600091509050806000015490806001018054610d7b90611bda565b80601f0160208091040260200160405190810160405280929190818152602001828054610da790611bda565b8015610df45780601f10610dc957610100808354040283529160200191610df4565b820191906000526020600020905b815481529060010190602001808311610dd757829003601f168201915b5050505050908060020154908060030154908060040160009054906101000a900460ff16908060040160019054906101000a900460ff16908060040160029054906101000a900460ff16905087565b610e4b611073565b6003600084815260200190815260200160002060008373ffffffffffffffffffffffffffffffffffffffff1673ffffffffffffffffffffffffffffffffffffffff168152602001908152602001600020604051806060016040529081600082015481526020016001820160009054906101000a900460ff161515151581526020016001820160019054906101000a900460ff161515151581525050905092915050565b610ef6611098565b600260008381526020019081526020016000206040518060e001604052908160008201548152602001600182018054610f2e90611bda565b80601f0160208091040260200160405190810160405280929190818152602001828054610f5a90611bda565b8015610fa75780601f10610f7c57610100808354040283529160200191610fa7565b820191906000526020600020905b815481529060010190602001808311610f8a57829003601f168201915b5050505050815260200160028201548152602001600382015481526020016004820160009054906101000a900460ff161515151581526020016004820160019054906101000a900460ff161515151581526020016004820160029054906101000a900460ff1615151515815250509050919050565b60045481565b6003602052816000526040600020602052806000526040600020600091509150508060000154908060010160009054906101000a900460ff16908060010160019054906101000a900460ff16905083565b6040518060600160405280600081526020016000151581526020016000151581525090565b6040518060e00160405280600081526020016060815260200160008152602001600081526020016000151581526020016000151581526020016000151581525090565b6000604051905090565b600080fd5b600080fd5b6000819050919050565b611102816110ef565b811461110d57600080fd5b50565b60008135905061111f816110f9565b92915050565b60008115159050919050565b61113a81611125565b811461114557600080fd5b50565b60008135905061115781611131565b92915050565b600080600060608486031215611176576111756110e5565b5b600061118486828701611110565b935050602061119586828701611148565b92505060406111a686828701611110565b9150509250925092565b600073ffffffffffffffffffffffffffffffffffffffff82169050919050565b6000819050919050565b60006111f56111f06111eb846111b0565b6111d0565b6111b0565b9050919050565b6000611207826111da565b9050919050565b6000611219826111fc565b9050919050565b6112298161120e565b82525050565b60006020820190506112446000830184611220565b92915050565b600080fd5b600080fd5b6000601f19601f8301169050919050565b7f4e487b7100000000000000000000000000000000000000000000000000000000600052604160045260246000fd5b61129d82611254565b810181811067ffffffffffffffff821117156112bc576112bb611265565b5b80604052505050565b60006112cf6110db565b90506112db8282611294565b919050565b600067ffffffffffffffff8211156112fb576112fa611265565b5b61130482611254565b9050602081019050919050565b82818337600083830152505050565b600061133361132e846112e0565b6112c5565b90508281526020810184848401111561134f5761134e61124f565b5b61135a848285611311565b509392505050565b600082601f8301126113775761137661124a565b5b8135611387848260208601611320565b91505092915050565b6000602082840312156113a6576113a56110e5565b5b600082013567ffffffffffffffff8111156113c4576113c36110ea565b5b6113d084828501611362565b91505092915050565b600080604083850312156113f0576113ef6110e5565b5b60006113fe85828601611110565b925050602061140f85828601611148565b9150509250929050565b60006020828403121561142f5761142e6110e5565b5b600061143d84828501611110565b91505092915050565b6000611451826111b0565b9050919050565b61146181611446565b82525050565b600060208201905061147c6000830184611458565b92915050565b61148b816110ef565b82525050565b600081519050919050565b600082825260208201905092915050565b60005b838110156114cb5780820151818401526020810190506114b0565b60008484015250505050565b60006114e282611491565b6114ec818561149c565b93506114fc8185602086016114ad565b61150581611254565b840191505092915050565b61151981611125565b82525050565b600060e082019050611534600083018a611482565b818103602083015261154681896114d7565b90506115556040830188611482565b6115626060830187611482565b61156f6080830186611510565b61157c60a0830185611510565b61158960c0830184611510565b98975050505050505050565b61159e81611446565b81146115a957600080fd5b50565b6000813590506115bb81611595565b92915050565b600080604083850312156115d8576115d76110e5565b5b60006115e685828601611110565b92505060206115f7858286016115ac565b9150509250929050565b61160a816110ef565b82525050565b61161981611125565b82525050565b6060820160008201516116356000850182611601565b5060208201516116486020850182611610565b50604082015161165b6040850182611610565b50505050565b6000606082019050611676600083018461161f565b92915050565b600082825260208201905092915050565b600061169882611491565b6116a2818561167c565b93506116b28185602086016114ad565b6116bb81611254565b840191505092915050565b600060e0830160008301516116de6000860182611601565b50602083015184820360208601526116f6828261168d565b915050604083015161170b6040860182611601565b50606083015161171e6060860182611601565b5060808301516117316080860182611610565b5060a083015161174460a0860182611610565b5060c083015161175760c0860182611610565b508091505092915050565b6000602082019050818103600083015261177c81846116c6565b905092915050565b60006020820190506117996000830184611482565b92915050565b60006060820190506117b46000830186611482565b6117c16020830185611510565b6117ce6040830184611510565b949350505050565b7f4d61726b657420646f6573206e6f742065786973740000000000000000000000600082015250565b600061180c60158361149c565b9150611817826117d6565b602082019050919050565b6000602082019050818103600083015261183b816117ff565b9050919050565b7f4d61726b657420616c7265616479207265736f6c766564000000000000000000600082015250565b600061187860178361149c565b915061188382611842565b602082019050919050565b600060208201905081810360008301526118a78161186b565b9050919050565b7f416d6f756e74206d7573742062652067726561746572207468616e2030000000600082015250565b60006118e4601d8361149c565b91506118ef826118ae565b602082019050919050565b60006020820190508181036000830152611913816118d7565b9050919050565b7f416c726561647920626574206f6e2074686973206d61726b6574000000000000600082015250565b6000611950601a8361149c565b915061195b8261191a565b602082019050919050565b6000602082019050818103600083015261197f81611943565b9050919050565b600060608201905061199b6000830186611458565b6119a86020830185611458565b6119b56040830184611482565b949350505050565b6000815190506119cc81611131565b92915050565b6000602082840312156119e8576119e76110e5565b5b60006119f6848285016119bd565b91505092915050565b7f55534443207472616e73666572206661696c6564000000000000000000000000600082015250565b6000611a3560148361149c565b9150611a40826119ff565b602082019050919050565b60006020820190508181036000830152611a6481611a28565b9050919050565b7f4e487b7100000000000000000000000000000000000000000000000000000000600052601160045260246000fd5b6000611aa5826110ef565b9150611ab0836110ef565b9250828201905080821115611ac857611ac7611a6b565b5b92915050565b6000604082019050611ae36000830185611510565b611af06020830184611482565b9392505050565b7f4e6f74206f776e65720000000000000000000000000000000000000000000000600082015250565b6000611b2d60098361149c565b9150611b3882611af7565b602082019050919050565b60006020820190508181036000830152611b5c81611b20565b9050919050565b6000611b6e826110ef565b91507fffffffffffffffffffffffffffffffffffffffffffffffffffffffffffffffff8203611ba057611b9f611a6b565b5b600182019050919050565b7f4e487b7100000000000000000000000000000000000000000000000000000000600052602260045260246000fd5b60006002820490506001821680611bf257607f821691505b602082108103611c0557611c04611bab565b5b50919050565b60008190508160005260206000209050919050565b60006020601f8301049050919050565b600082821b905092915050565b600060088302611c6d7fffffffffffffffffffffffffffffffffffffffffffffffffffffffffffffffff82611c30565b611c778683611c30565b95508019841693508086168417925050509392505050565b6000611caa611ca5611ca0846110ef565b6111d0565b6110ef565b9050919050565b6000819050919050565b611cc483611c8f565b611cd8611cd082611cb1565b848454611c3d565b825550505050565b600090565b611ced611ce0565b611cf8818484611cbb565b505050565b5b81811015611d1c57611d11600082611ce5565b600181019050611cfe565b5050565b601f821115611d6157611d3281611c0b565b611d3b84611c20565b81016020851015611d4a578190505b611d5e611d5685611c20565b830182611cfd565b50505b505050565b600082821c905092915050565b6000611d8460001984600802611d66565b1980831691505092915050565b6000611d9d8383611d73565b9150826002028217905092915050565b611db682611491565b67ffffffffffffffff811115611dcf57611dce611265565b5b611dd98254611bda565b611de4828285611d20565b600060209050601f831160018114611e175760008415611e05578287015190505b611e0f8582611d91565b865550611e77565b601f198416611e2586611c0b565b60005b82811015611e4d57848901518255600182019150602085019450602081019050611e28565b86831015611e6a5784890151611e66601f891682611d73565b8355505b6001600288020188555050505b505050505050565b60006020820190508181036000830152611e9981846114d7565b905092915050565b7f416c7265616479207265736f6c76656400000000000000000000000000000000600082015250565b6000611ed760108361149c565b9150611ee282611ea1565b602082019050919050565b60006020820190508181036000830152611f0681611eca565b9050919050565b6000602082019050611f226000830184611510565b92915050565b7f4d61726b6574206e6f74207265736f6c76656420796574000000000000000000600082015250565b6000611f5e60178361149c565b9150611f6982611f28565b602082019050919050565b60006020820190508181036000830152611f8d81611f51565b9050919050565b7f4e6f2062657420666f756e640000000000000000000000000000000000000000600082015250565b6000611fca600c8361149c565b9150611fd582611f94565b602082019050919050565b60006020820190508181036000830152611ff981611fbd565b9050919050565b7f416c726561647920636c61696d65640000000000000000000000000000000000600082015250565b6000612036600f8361149c565b915061204182612000565b602082019050919050565b6000602082019050818103600083015261206581612029565b9050919050565b7f596f7520646964206e6f742077696e0000000000000000000000000000000000600082015250565b60006120a2600f8361149c565b91506120ad8261206c565b602082019050919050565b600060208201905081810360008301526120d181612095565b9050919050565b60006120e3826110ef565b91506120ee836110ef565b92508282026120fc816110ef565b9150828204841483151761211357612112611a6b565b5b5092915050565b7f4e487b7100000000000000000000000000000000000000000000000000000000600052601260045260246000fd5b6000612154826110ef565b915061215f836110ef565b92508261216f5761216e61211a565b5b828204905092915050565b600060408201905061218f6000830185611458565b61219c6020830184611482565b9392505050565b7f5472616e73666572206661696c65640000000000000000000000000000000000600082015250565b60006121d9600f8361149c565b91506121e4826121a3565b602082019050919050565b60006020820190508181036000830152612208816121cc565b905091905056fea2646970667358221220de024eb2db32ce5ef603efc015254e64a51ac18155bcb7666427d88b3b9d405c64736f6c63430008130033",
  "linkReferences": {},
  "deployedLinkReferences": {}
}